:03000000020B20D0
:0C0B2000787FE4F6D8FD758120020B6799
:100E0900080C0406020301090901030206040C087F
:0D0E190040792430191202780010FEFDFB14
:100E42000A08C0F9A4B0999282F8809003160000B3
:090E520000021400000219000066
:080DCE00EB93F5907F027E001B
:100DD600EF1FAA0670011E4A600BE4FDEDC3947373
:050DE60050EE0D80F746
:010DEB0022E5
:100DEC00D3EF9400EE940040137DA77CAB7B10DB1B
:0C0DFC00FEDCFADDF6EF1F70E71E80E45D
:010E080022C7
:0E0E8200E4FFFE0FBF00010EEF64394E70F565
:010E9000223F
:100D6900751200751301E51345126017E4FD120EA3
:100D790082B2A40DBD64F720B305E4F512F513D2D0
:030D8900A480E360
:010D8C002244
:100E5C00E4FCE4FB900E09120DCE0BBB08F60CBCA7
:020E6C0008F08C
:010E6E002261
:100E6F00E4FCE4FB900E11120DCE0BBB08F60CBC8C
:020E7F0008F079
:010E8100224E
:070E9100AE071FEE70FA220C
:100DAE00D2B700C2B77F4B120E91D2B77F04120E8C
:0F0DBE0091A2B792007F14120E91D2B700A2003B
:010DCD002203
:020E2600AD0716
:100E2800E4FBC2B700ED1392B77F0A120E91D2B756
:090E380000EDC313FD0BBB08E93A
:010E4100228E
:100D4000E4FCC2B700D2B700A2B7E433FB7F0A12BB
:100D50000E91D2B700EBC43333335480FFEDC3138D
:080D60004FFD0CBC08DCAF05DF
:010D68002268
:100CFE00AE14AF157C007D64120ABD8F16AE14AF14
:100D0E00157C007D64120ABD7E007F0ACFCDCFCE4A
:100D1E00CCCE120ABD8F17AE14AF157C007D0A1211
:100D2E000ABD7E007F0ACFCDCFCECCCE120ABD8FAC
:020D3E00182279
:100CB6007580FF7423251AF582740E3519F583E4C1
:100CC60093F5A0E51A64014519600E7416251AF805
:100CD600E62408F8E6F580800C7416251AF8E690E6
:100CE6000E1993F580051AE51A7002051964034575
:080CF600197004F519F51A222A
:03001B00020D8D46
:100D8D00C0E0C083C082C0D075D000C000758DFE9C
:100D9D00758B0C120CB6D000D0D0D082D083D0E0A1
:010DAD003213
:03000B00020BAC39
:100BAC00C0E0C0F0C083C082C0D075D000C000C00F
:0D0BBC0001C002C003C004C005C006C00790
:100BC900758C3C758AB0120DAE7FCC120E267F440F
:100BD900120E26120DAE7FCC120E267FBE120E26E5
:100BE900120D40AA07120D40EFFEEAFFE4AD07AC73
:100BF90006120A03E4FBFA7920783F1208F8E4FBAD
:100C0900FAF9783F120807120A3C8E148F15120C54
:010C1900FEDC
:100C1A00D007D006D005D004D003D002D001D0002E
:0B0C2A00D0D0D082D083D0F0D0E032D8
:100C3500751B10758911758C3C758AB0758DFE759F
:100C45008B0CD2A9D28CD2ABD28ED2AF7F037E00D1
:100C5500120DEC20A734E4F9E9C3951B5006120EDA
:100C65005C0980F430A7FD7F057E00120DECE4F9E8
:100C7500E9C3951B5006120E6F0980F420A60E12CB
:100C85000E8220A608120D6980037590F030A50B21
:100C9500D3E515945EE514940140B8120E8230A593
:100CA5000BD3E515945EE514940140A7120D6980F8
:010CB500A29C
:10080000020AA8E86480F8E933E83360110460F074
:10081000ED33EC337009E8FCE9FDEAFEEBFF22045E
:1008200060DED3EB9FEA9EE99DE8C2E78CF0C2F759
:1008300095F0400CE8CCF8E9CDF9EACEFAEBCFFB25
:10084000120A7385D0F05804700320D5B3E8047001
:10085000075002B2D5020AB292D5EC0460F7E4CC9C
:10086000C0E0C398F8603B94186008400DD0E0FBEE
:10087000020A8AE4FBFAC9FC8028E830E406E4C9ED
:10088000FBE4CAFCE830E305E4C9CACBFCE8540742
:100890006010F8C3E913F9EA13FAEB13FBEC13FC4D
:1008A000D8F130F52FC3E49CFCEF9BFFEE9AFEEDF0
:1008B00099FDD0E0FBEF4E4D4C701222DB03020A93
:1008C000AFEC2CFCEF33FFEE33FEED33FDED30E704
:1008D000EB020A8AEF2BFFEE3AFEED39FDD0E0FB8A
:1008E00050130BBB0003020AB2ED13FDEE13FEEF33
:0808F00013FFEC13FC020A8A5D
:1008F800EC4D6011E8497017ED33EC3304600DE4FA
:10090800FCFFFEFD22E933E8330470F8020AA8125E
:100918000A7358046009E4CC24815006285009025F
:100928000AB2284003020AAFC0E0EB4A7044B9801B
:1009380006D0E0FB020A9EEF4E701CBD8008EBFF5C
:10094800EAFEE9FD80EBE98DF0A4FEE5F00209E19D
:10095800E9CDF9EAFEEBFFEF89F0A4FCE5F0CE89DA
:10096800F0A42EFFE435F0CD89F0A42DFEE435F097
:100978008067EF4E7005BD80D780C3EF8BF0A4ACC5
:10098800F0EE8BF0A42CFCE435F0F8EF8AF0A42C00
:10099800E5F038FCE433CB8DF0A42CFCE5F03BF813
:1009A800EE8AF0A42CFCE5F038F8E433CF89F0A403
:1009B8002CFCE5F038CF3400CE89F0A42FFFE5F009
:1009C8003EFEE433C98DF0A42EFEE5F039CD8AF061
:1009D800A42FFFE5F03EFEE43DFD33D0E0FB5007D9
:1009E8000BBB000F020AB2EC2CFCEF33FFEE33FE18
:0609F800ED33FD020A8A46
:1009FE0075F020800E75F010800575F0087D007E74
:100A0E00007F003392D530D503120B12EC33401019
:100A1E00EF33FFEE33FEED33FDEC33FCD5F0ED227C
:0E0A2E00E5F0247EA2D513CC92E7CDCEFF22B8
:100A3C00EDD2E7CD33EC3392D524814006E4FFFEB2
:100A4C00FDFC22FCE4CFCECDCC24E0501174FF8011
:100A5C00EDC3CC13CCCD13CDCE13CECF13CF0470AE
:070A6C00F030D5DE020B1291
:100A7300E9D2E7C933E833F892D5EDD2E7CD33ECC9
:070A830033FC5002B2D52242
:100A8A00EC30E7100FBF000C0EBE00080DBD0004CD
:100A9A000BEB6014A2D5EB13FCED92E7FD2274FF79
:100AAA00FCFDFEFF22E480F8A2D574FF13FC7D80D2
:030ABA00E480EFE6
:100B2C00020C35E493A3F8E493A34003F68001F29E
:100B3C0008DFF48029E493A3F85407240CC8C333CA
:100B4C00C4540F4420C8834004F456800146F6DF99
:100B5C00E4800B0102040810204080900E42E47ED9
:100B6C00019360BCA3FF543F30E509541FFEE4938E
:100B7C00A360010ECF54C025E060A840B8E493A355
:100B8C00FAE493A3F8E493A3C8C582C8CAC583CA80
:100B9C00F0A3C8C582C8CAC583CADFE9DEE780BE38
:010E5B000096
:100ABD00BC000BBE0029EF8DF084FFADF022E4CC1D
:100ACD00F875F008EF2FFFEE33FEEC33FCEE9DECE6
:100ADD00984005FCEE9DFE0FD5F0E9E4CEFD22ED2C
:100AED00F8F5F0EE8420D21CFEADF075F008EF2F76
:100AFD00FFED33FD4007985006D5F0F222C398FD67
:050B0D000FD5F0EA2203
:0E0B1200C3E49FFFE49EFEE49DFDE49CFC22F4
:00000001FF
