:03000000020A28C9
:0C0A2800787FE4F6D8FD758120020A6F8B
:100CF800080C0406020301090901030206040C0892
:0E0D080040792430191202780010FEFDFBF72E
:100D4F000A08C0F9A4B0999282F8809004160000A6
:0A0D5F00000002140000021A000058
:080CDA00EB93F5907F027E0010
:100CE200EF1FAA0670011E4A600BE4FDEDC3947368
:050CF20050EE0D80F73B
:010CF70022DA
:100D1600D3EF9400EE940040137DA77CAB7B10DBF1
:0C0D2600FEDCFADDF6EF1F70E71E80E433
:010D3200229E
:0E0D9000E4FFFE0FBF00010EEF64394E70F558
:010D9E002232
:100C7500751200751301E51345126017E4FD120D99
:100C850090B2A40DBD64F720B305E4F512F513D2B7
:030C9500A480E355
:010C98002239
:100D6A00E4FCE4FB900CF8120CDA0BBB08F60CBCA2
:020D7A0008F07F
:010D7C002254
:100D7D00E4FCE4FB900D00120CDA0BBB08F60CBC86
:020D8D0008F06C
:010D8F002241
:070D9F00AE071FEE70FA22FF
:100CBA00D2B700C2B77F4B120D9FD2B77F04120D75
:0F0CCA009FA2B792007F14120D9FD2B700A20015
:010CD90022F8
:020D3300AD070A
:100D3500E4FBC2B700ED1392B77F0A120D9FD2B73D
:090D450000EDC313FD0BBB08E92E
:010D4E002282
:100C4C00E4FCC2B700D2B700A2B7E433FB7F0A12B0
:100C5C000D9FD2B700EBC43333335480FFEDC31375
:080C6C004FFD0CBC08DCAF05D4
:010C7400225D
:100BB500AE14AF157C037DE81209C58F16AE14AFD0
:100BC500157C037DE81209C57E007F64CFCDCFCEAD
:100BD500CCCE1209C58F17AE14AF157C007D6412FB
:100BE50009C57E007F0ACFCDCFCECCCE1209C58FE9
:0F0BF50018AE14AF157C007D0A1209C58D1922A8
:100C04007580FF7412251BF582740D351AF583E483
:100C140093F5A0E51B6401451A600E7416251BF8B4
:100C2400E62408F8E6F580800C7416251BF8E69097
:100C34000D0893F580051BE51B7002051A64044535
:080C44001A7004F51AF51B22D9
:03001B00020C993B
:100C9900C0E0C083C082C0D075D000C000758DFE91
:100CA900758B0C120C04D000D0D0D082D083D0E048
:010CB9003208
:03000B00020B35B0
:100B3500C0E0C0F0C083C082C0D075D000C000C086
:0D0B450001C002C003C004C005C006C00707
:100B5200758C3C758AB0120CBA7FCC120D337F446F
:100B6200120D33120CBA7FCC120D337FBE120D332D
:100B7200120C4CAA07120C4CEFFEEAFFE4AD07ACD4
:100B82000612090BE4FBFA79C87840120800120930
:080B9200448E148F15120BB5FF
:100B9A00D007D006D005D004D003D002D001D000AF
:0B0BAA00D0D0D082D083D0F0D0E03259
:100AB400751C10758911758C3C758AB0758DFE7521
:100AC4008B0CD2A9D28CD2ABD28ED2AF7F037E0054
:100AD400120D1620A734E4F9E9C3951C5006120D33
:100AE4006A0980F430A7FD7F057E00120D16E4F933
:100AF400E9C3951C5006120D7D0980F420A60E1240
:100B04000D9020A608120C7580037590F030A50B8B
:100B1400D3E51594ACE514940D40B8120D9030A5AE
:100B24000BD3E515945EE514940140A7120C75806F
:010B3400A21E
:10080000EC4D6011E8497017ED33EC3304600DE4F2
:10081000FCFFFEFD22E933E8330470F80209B01250
:10082000097B58046009E4CC248150062850090251
:1008300009BA2840030209B7C0E0EB4A7044B98006
:1008400006D0E0FB0209A6EF4E701CBD8008EBFF4E
:10085000EAFEE9FD80EBE98DF0A4FEE5F00208E98F
:10086000E9CDF9EAFEEBFFEF89F0A4FCE5F0CE89D3
:10087000F0A42EFFE435F0CD89F0A42DFEE435F090
:100880008067EF4E7005BD80D780C3EF8BF0A4ACBE
:10089000F0EE8BF0A42CFCE435F0F8EF8AF0A42CF9
:1008A000E5F038FCE433CB8DF0A42CFCE5F03BF80C
:1008B000EE8AF0A42CFCE5F038F8E433CF89F0A4FC
:1008C0002CFCE5F038CF3400CE89F0A42FFFE5F002
:1008D0003EFEE433C98DF0A42EFEE5F039CD8AF05A
:1008E000A42FFFE5F03EFEE43DFD33D0E0FB5007D2
:1008F0000BBB000F0209BAEC2CFCEF33FFEE33FE0A
:06090000ED33FD02099237
:1009060075F020800E75F010800575F0087D007E6C
:10091600007F003392D530D503120A1AEC3340100B
:10092600EF33FFEE33FEED33FDEC33FCD5F0ED2275
:0E093600E5F0247EA2D513CC92E7CDCEFF22B1
:10094400EDD2E7CD33EC3392D524814006E4FFFEAB
:10095400FDFC22FCE4CFCECDCC24E0501174FF800A
:10096400EDC3CC13CCCD13CDCE13CECF13CF0470A7
:07097400F030D5DE020A1A83
:10097B00E9D2E7C933E833F892D5EDD2E7CD33ECC2
:07098B0033FC5002B2D5223B
:10099200EC30E7100FBF000C0EBE00080DBD0004C6
:1009A2000BEB6014A2D5EB13FCED92E7FD2274FF72
:1009B200FCFDFEFF22E480F8A2D574FF13FC7D80CB
:0309C200E480EFDF
:100A3400020AB4E493A3F8E493A34003F68001F21A
:100A440008DFF48029E493A3F85407240CC8C333C3
:100A5400C4540F4420C8834004F456800146F6DF92
:100A6400E4800B0102040810204080900D4FE47EC6
:100A7400019360BCA3FF543F30E509541FFEE49387
:100A8400A360010ECF54C025E060A840B8E493A34E
:100A9400FAE493A3F8E493A3C8C582C8CAC583CA79
:100AA400F0A3C8C582C8CAC583CADFE9DEE780BE31
:010D69000089
:1009C500BC000BBE0029EF8DF084FFADF022E4CC16
:1009D500F875F008EF2FFFEE33FEEC33FCEE9DECDF
:1009E500984005FCEE9DFE0FD5F0E9E4CEFD22ED25
:1009F500F8F5F0EE8420D21CFEADF075F008EF2F6F
:100A0500FFED33FD4007985006D5F0F222C398FD5F
:050A15000FD5F0EA22FC
:0E0A1A00C3E49FFFE49EFEE49DFDE49CFC22ED
:00000001FF
